{
  "_format": "hh-sol-artifact-1",
  "contractName": "SanitizationTracker",
  "sourceName": "contracts/SanitizationTracker.sol",
  "abi": [
    {
      "inputs": [],
      "stateMutability": "nonpayable",
      "type": "constructor"
    },
    {
      "anonymous": false,
      "inputs": [
        {
          "indexed": true,
          "internalType": "uint256",
          "name": "areaId",
          "type": "uint256"
        },
        {
          "indexed": false,
          "internalType": "string",
          "name": "name",
          "type": "string"
        }
      ],
      "name": "AreaRegistered",
      "type": "event"
    },
    {
      "anonymous": false,
      "inputs": [
        {
          "indexed": true,
          "internalType": "uint256",
          "name": "areaId",
          "type": "uint256"
        },
        {
          "indexed": true,
          "internalType": "address",
          "name": "operatorAddress",
          "type": "address"
        },
        {
          "indexed": false,
          "internalType": "string",
          "name": "outcome",
          "type": "string"
        }
      ],
      "name": "AreaSanitized",
      "type": "event"
    },
    {
      "anonymous": false,
      "inputs": [
        {
          "indexed": true,
          "internalType": "address",
          "name": "operatorAddress",
          "type": "address"
        },
        {
          "indexed": false,
          "internalType": "string",
          "name": "name",
          "type": "string"
        }
      ],
      "name": "OperatorRegistered",
      "type": "event"
    },
    {
      "inputs": [],
      "name": "admin",
      "outputs": [
        {
          "internalType": "address",
          "name": "",
          "type": "address"
        }
      ],
      "stateMutability": "view",
      "type": "function"
    },
    {
      "inputs": [
        {
          "internalType": "uint256",
          "name": "",
          "type": "uint256"
        },
        {
          "internalType": "uint256",
          "name": "",
          "type": "uint256"
        }
      ],
      "name": "areaEvents",
      "outputs": [
        {
          "internalType": "uint256",
          "name": "areaId",
          "type": "uint256"
        },
        {
          "internalType": "address",
          "name": "operatorAddress",
          "type": "address"
        },
        {
          "internalType": "uint256",
          "name": "timestamp",
          "type": "uint256"
        },
        {
          "internalType": "string",
          "name": "outcome",
          "type": "string"
        },
        {
          "internalType": "string",
          "name": "notes",
          "type": "string"
        }
      ],
      "stateMutability": "view",
      "type": "function"
    },
    {
      "inputs": [
        {
          "internalType": "uint256",
          "name": "",
          "type": "uint256"
        }
      ],
      "name": "areas",
      "outputs": [
        {
          "internalType": "uint256",
          "name": "id",
          "type": "uint256"
        },
        {
          "internalType": "string",
          "name": "name",
          "type": "string"
        },
        {
          "internalType": "bool",
          "name": "active",
          "type": "bool"
        },
        {
          "internalType": "bool",
          "name": "exists",
          "type": "bool"
        }
      ],
      "stateMutability": "view",
      "type": "function"
    },
    {
      "inputs": [
        {
          "internalType": "uint256",
          "name": "_areaId",
          "type": "uint256"
        }
      ],
      "name": "getAreaEvents",
      "outputs": [
        {
          "components": [
            {
              "internalType": "uint256",
              "name": "areaId",
              "type": "uint256"
            },
            {
              "internalType": "address",
              "name": "operatorAddress",
              "type": "address"
            },
            {
              "internalType": "uint256",
              "name": "timestamp",
              "type": "uint256"
            },
            {
              "internalType": "string",
              "name": "outcome",
              "type": "string"
            },
            {
              "internalType": "string",
              "name": "notes",
              "type": "string"
            }
          ],
          "internalType": "struct SanitizationTracker.SanitizationEvent[]",
          "name": "",
          "type": "tuple[]"
        }
      ],
      "stateMutability": "view",
      "type": "function"
    },
    {
      "inputs": [
        {
          "internalType": "uint256",
          "name": "_areaId",
          "type": "uint256"
        }
      ],
      "name": "getEventCount",
      "outputs": [
        {
          "internalType": "uint256",
          "name": "",
          "type": "uint256"
        }
      ],
      "stateMutability": "view",
      "type": "function"
    },
    {
      "inputs": [
        {
          "internalType": "uint256",
          "name": "_areaId",
          "type": "uint256"
        }
      ],
      "name": "getLastSanitization",
      "outputs": [
        {
          "components": [
            {
              "internalType": "uint256",
              "name": "areaId",
              "type": "uint256"
            },
            {
              "internalType": "address",
              "name": "operatorAddress",
              "type": "address"
            },
            {
              "internalType": "uint256",
              "name": "timestamp",
              "type": "uint256"
            },
            {
              "internalType": "string",
              "name": "outcome",
              "type": "string"
            },
            {
              "internalType": "string",
              "name": "notes",
              "type": "string"
            }
          ],
          "internalType": "struct SanitizationTracker.SanitizationEvent",
          "name": "",
          "type": "tuple"
        }
      ],
      "stateMutability": "view",
      "type": "function"
    },
    {
      "inputs": [
        {
          "internalType": "address",
          "name": "",
          "type": "address"
        }
      ],
      "name": "operators",
      "outputs": [
        {
          "internalType": "address",
          "name": "wallet",
          "type": "address"
        },
        {
          "internalType": "string",
          "name": "name",
          "type": "string"
        },
        {
          "internalType": "bool",
          "name": "active",
          "type": "bool"
        },
        {
          "internalType": "bool",
          "name": "exists",
          "type": "bool"
        }
      ],
      "stateMutability": "view",
      "type": "function"
    },
    {
      "inputs": [
        {
          "internalType": "uint256",
          "name": "_id",
          "type": "uint256"
        },
        {
          "internalType": "string",
          "name": "_name",
          "type": "string"
        }
      ],
      "name": "registerArea",
      "outputs": [],
      "stateMutability": "nonpayable",
      "type": "function"
    },
    {
      "inputs": [
        {
          "internalType": "address",
          "name": "_wallet",
          "type": "address"
        },
        {
          "internalType": "string",
          "name": "_name",
          "type": "string"
        }
      ],
      "name": "registerOperator",
      "outputs": [],
      "stateMutability": "nonpayable",
      "type": "function"
    },
    {
      "inputs": [
        {
          "internalType": "uint256",
          "name": "_areaId",
          "type": "uint256"
        },
        {
          "internalType": "string",
          "name": "_outcome",
          "type": "string"
        },
        {
          "internalType": "string",
          "name": "_notes",
          "type": "string"
        }
      ],
      "name": "sanitize",
      "outputs": [],
      "stateMutability": "nonpayable",
      "type": "function"
    },
    {
      "inputs": [
        {
          "internalType": "uint256",
          "name": "_id",
          "type": "uint256"
        },
        {
          "internalType": "bool",
          "name": "_active",
          "type": "bool"
        }
      ],
      "name": "setAreaActive",
      "outputs": [],
      "stateMutability": "nonpayable",
      "type": "function"
    },
    {
      "inputs": [
        {
          "internalType": "address",
          "name": "_wallet",
          "type": "address"
        },
        {
          "internalType": "bool",
          "name": "_active",
          "type": "bool"
        }
      ],
      "name": "setOperatorActive",
      "outputs": [],
      "stateMutability": "nonpayable",
      "type": "function"
    }
  ],
  "bytecode": "0x6080604052348015600f57600080fd5b50336000806101000a81548173ffffffffffffffffffffffffffffffffffffffff021916908373ffffffffffffffffffffffffffffffffffffffff1602179055506125688061005f6000396000f3fe608060405234801561001057600080fd5b50600436106100b45760003560e01c8063a2e0749011610071578063a2e07490146101b7578063bb374dad146101d3578063ea1aa485146101ef578063f7723cd914610223578063f851a44014610253578063fce9289414610271576100b4565b806313e7c9d8146100b957806314e25992146100ec5780631c2eaa9c146101085780632fb2526c1461013857806399de80da146101685780639b2c612514610184575b600080fd5b6100d360048036038101906100ce919061155a565b61028d565b6040516100e39493929190611641565b60405180910390f35b610106600480360381019061010191906117f8565b61037f565b005b610122600480360381019061011d9190611854565b61054a565b60405161012f9190611890565b60405180910390f35b610152600480360381019061014d9190611854565b61056a565b60405161015f9190611990565b60405180910390f35b610182600480360381019061017d91906119b2565b6107c0565b005b61019e60048036038101906101999190611854565b610b00565b6040516101ae9493929190611a3d565b60405180910390f35b6101d160048036038101906101cc9190611ab5565b610bd2565b005b6101ed60048036038101906101e89190611af5565b610cf5565b005b61020960048036038101906102049190611b35565b610e70565b60405161021a959493929190611b75565b60405180910390f35b61023d60048036038101906102389190611854565b610ff3565b60405161024a9190611d15565b60405180910390f35b61025b6111f3565b6040516102689190611d37565b60405180910390f35b61028b60048036038101906102869190611d52565b611217565b005b60026020528060005260406000206000915090508060000160009054906101000a900473ffffffffffffffffffffffffffffffffffffffff16908060010180546102d690611ddd565b80601f016020809104026020016040519081016040528092919081815260200182805461030290611ddd565b801561034f5780601f106103245761010080835404028352916020019161034f565b820191906000526020600020905b81548152906001019060200180831161033257829003601f168201915b5050505050908060020160009054906101000a900460ff16908060020160019054906101000a900460ff16905084565b60008054906101000a900473ffffffffffffffffffffffffffffffffffffffff1673ffffffffffffffffffffffffffffffffffffffff163373ffffffffffffffffffffffffffffffffffffffff161461040d576040517f08c379a000000000000000000000000000000000000000000000000000000000815260040161040490611e80565b60405180910390fd5b6001600083815260200190815260200160002060020160019054906101000a900460ff1615610471576040517f08c379a000000000000000000000000000000000000000000000000000000000815260040161046890611eec565b60405180910390fd5b604051806080016040528083815260200182815260200160011515815260200160011515815250600160008481526020019081526020016000206000820151816000015560208201518160010190816104ca91906120b8565b5060408201518160020160006101000a81548160ff02191690831515021790555060608201518160020160016101000a81548160ff021916908315150217905550905050817fdfef6fdb5d3eda3642faa890b1a45e8507e4c31a1c3ee157de49eaa70ffa52d28260405161053e919061218a565b60405180910390a25050565b600060036000838152602001908152602001600020805490509050919050565b6105726114a3565b60006003600084815260200190815260200160002080549050116105cb576040517f08c379a00000000000000000000000000000000000000000000000000000000081526004016105c2906121f8565b60405180910390fd5b60036000838152602001908152602001600020600160036000858152602001908152602001600020805490506106019190612247565b815481106106125761061161227b565b5b90600052602060002090600502016040518060a0016040529081600082015481526020016001820160009054906101000a900473ffffffffffffffffffffffffffffffffffffffff1673ffffffffffffffffffffffffffffffffffffffff1673ffffffffffffffffffffffffffffffffffffffff168152602001600282015481526020016003820180546106a590611ddd565b80601f01602080910402602001604051908101604052809291908181526020018280546106d190611ddd565b801561071e5780601f106106f35761010080835404028352916020019161071e565b820191906000526020600020905b81548152906001019060200180831161070157829003601f168201915b5050505050815260200160048201805461073790611ddd565b80601f016020809104026020016040519081016040528092919081815260200182805461076390611ddd565b80156107b05780601f10610785576101008083540402835291602001916107b0565b820191906000526020600020905b81548152906001019060200180831161079357829003601f168201915b5050505050815250509050919050565b600260003373ffffffffffffffffffffffffffffffffffffffff1673ffffffffffffffffffffffffffffffffffffffff16815260200190815260200160002060020160019054906101000a900460ff1661084f576040517f08c379a0000000000000000000000000000000000000000000000000000000008152600401610846906122f6565b60405180910390fd5b600260003373ffffffffffffffffffffffffffffffffffffffff1673ffffffffffffffffffffffffffffffffffffffff16815260200190815260200160002060020160009054906101000a900460ff166108de576040517f08c379a00000000000000000000000000000000000000000000000000000000081526004016108d590612362565b60405180910390fd5b6001600084815260200190815260200160002060020160019054906101000a900460ff16610941576040517f08c379a0000000000000000000000000000000000000000000000000000000008152600401610938906123ce565b60405180910390fd5b6001600084815260200190815260200160002060020160009054906101000a900460ff166109a4576040517f08c379a000000000000000000000000000000000000000000000000000000000815260040161099b9061243a565b60405180910390fd5b60006040518060a001604052808581526020013373ffffffffffffffffffffffffffffffffffffffff168152602001428152602001848152602001838152509050600360008581526020019081526020016000208190806001815401808255809150506001900390600052602060002090600502016000909190919091506000820151816000015560208201518160010160006101000a81548173ffffffffffffffffffffffffffffffffffffffff021916908373ffffffffffffffffffffffffffffffffffffffff160217905550604082015181600201556060820151816003019081610a9291906120b8565b506080820151816004019081610aa891906120b8565b5050503373ffffffffffffffffffffffffffffffffffffffff16847f771c05991b1527bbba2b49d9529807d4152761b330d6f4d045272d0aa02a23b885604051610af2919061218a565b60405180910390a350505050565b6001602052806000526040600020600091509050806000015490806001018054610b2990611ddd565b80601f0160208091040260200160405190810160405280929190818152602001828054610b5590611ddd565b8015610ba25780601f10610b7757610100808354040283529160200191610ba2565b820191906000526020600020905b815481529060010190602001808311610b8557829003601f168201915b5050505050908060020160009054906101000a900460ff16908060020160019054906101000a900460ff16905084565b60008054906101000a900473ffffffffffffffffffffffffffffffffffffffff1673ffffffffffffffffffffffffffffffffffffffff163373ffffffffffffffffffffffffffffffffffffffff1614610c60576040517f08c379a0000000000000000000000000000000000000000000000000000000008152600401610c5790611e80565b60405180910390fd5b6001600083815260200190815260200160002060020160019054906101000a900460ff16610cc3576040517f08c379a0000000000000000000000000000000000000000000000000000000008152600401610cba906123ce565b60405180910390fd5b806001600084815260200190815260200160002060020160006101000a81548160ff0219169083151502179055505050565b60008054906101000a900473ffffffffffffffffffffffffffffffffffffffff1673ffffffffffffffffffffffffffffffffffffffff163373ffffffffffffffffffffffffffffffffffffffff1614610d83576040517f08c379a0000000000000000000000000000000000000000000000000000000008152600401610d7a90611e80565b60405180910390fd5b600260008373ffffffffffffffffffffffffffffffffffffffff1673ffffffffffffffffffffffffffffffffffffffff16815260200190815260200160002060020160019054906101000a900460ff16610e12576040517f08c379a0000000000000000000000000000000000000000000000000000000008152600401610e09906124a6565b60405180910390fd5b80600260008473ffffffffffffffffffffffffffffffffffffffff1673ffffffffffffffffffffffffffffffffffffffff16815260200190815260200160002060020160006101000a81548160ff0219169083151502179055505050565b60036020528160005260406000208181548110610e8c57600080fd5b9060005260206000209060050201600091509150508060000154908060010160009054906101000a900473ffffffffffffffffffffffffffffffffffffffff1690806002015490806003018054610ee290611ddd565b80601f0160208091040260200160405190810160405280929190818152602001828054610f0e90611ddd565b8015610f5b5780601f10610f3057610100808354040283529160200191610f5b565b820191906000526020600020905b815481529060010190602001808311610f3e57829003601f168201915b505050505090806004018054610f7090611ddd565b80601f0160208091040260200160405190810160405280929190818152602001828054610f9c90611ddd565b8015610fe95780601f10610fbe57610100808354040283529160200191610fe9565b820191906000526020600020905b815481529060010190602001808311610fcc57829003601f168201915b5050505050905085565b606060036000838152602001908152602001600020805480602002602001604051908101604052809291908181526020016000905b828210156111e857838290600052602060002090600502016040518060a0016040529081600082015481526020016001820160009054906101000a900473ffffffffffffffffffffffffffffffffffffffff1673ffffffffffffffffffffffffffffffffffffffff1673ffffffffffffffffffffffffffffffffffffffff168152602001600282015481526020016003820180546110c590611ddd565b80601f01602080910402602001604051908101604052809291908181526020018280546110f190611ddd565b801561113e5780601f106111135761010080835404028352916020019161113e565b820191906000526020600020905b81548152906001019060200180831161112157829003601f168201915b5050505050815260200160048201805461115790611ddd565b80601f016020809104026020016040519081016040528092919081815260200182805461118390611ddd565b80156111d05780601f106111a5576101008083540402835291602001916111d0565b820191906000526020600020905b8154815290600101906020018083116111b357829003601f168201915b50505050508152505081526020019060010190611028565b505050509050919050565b60008054906101000a900473ffffffffffffffffffffffffffffffffffffffff1681565b60008054906101000a900473ffffffffffffffffffffffffffffffffffffffff1673ffffffffffffffffffffffffffffffffffffffff163373ffffffffffffffffffffffffffffffffffffffff16146112a5576040517f08c379a000000000000000000000000000000000000000000000000000000000815260040161129c90611e80565b60405180910390fd5b600260008373ffffffffffffffffffffffffffffffffffffffff1673ffffffffffffffffffffffffffffffffffffffff16815260200190815260200160002060020160019054906101000a900460ff1615611335576040517f08c379a000000000000000000000000000000000000000000000000000000000815260040161132c90612512565b60405180910390fd5b60405180608001604052808373ffffffffffffffffffffffffffffffffffffffff16815260200182815260200160011515815260200160011515815250600260008473ffffffffffffffffffffffffffffffffffffffff1673ffffffffffffffffffffffffffffffffffffffff16815260200190815260200160002060008201518160000160006101000a81548173ffffffffffffffffffffffffffffffffffffffff021916908373ffffffffffffffffffffffffffffffffffffffff160217905550602082015181600101908161140d91906120b8565b5060408201518160020160006101000a81548160ff02191690831515021790555060608201518160020160016101000a81548160ff0219169083151502179055509050508173ffffffffffffffffffffffffffffffffffffffff167f11a85ea4a40584362c3d9c17685709a2e02b466ac78d5eb00b6aff73d90f580582604051611497919061218a565b60405180910390a25050565b6040518060a0016040528060008152602001600073ffffffffffffffffffffffffffffffffffffffff1681526020016000815260200160608152602001606081525090565b6000604051905090565b600080fd5b600080fd5b600073ffffffffffffffffffffffffffffffffffffffff82169050919050565b6000611527826114fc565b9050919050565b6115378161151c565b811461154257600080fd5b50565b6000813590506115548161152e565b92915050565b6000602082840312156115705761156f6114f2565b5b600061157e84828501611545565b91505092915050565b6115908161151c565b82525050565b600081519050919050565b600082825260208201905092915050565b60005b838110156115d05780820151818401526020810190506115b5565b60008484015250505050565b6000601f19601f8301169050919050565b60006115f882611596565b61160281856115a1565b93506116128185602086016115b2565b61161b816115dc565b840191505092915050565b60008115159050919050565b61163b81611626565b82525050565b60006080820190506116566000830187611587565b818103602083015261166881866115ed565b90506116776040830185611632565b6116846060830184611632565b95945050505050565b6000819050919050565b6116a08161168d565b81146116ab57600080fd5b50565b6000813590506116bd81611697565b92915050565b600080fd5b600080fd5b7f4e487b7100000000000000000000000000000000000000000000000000000000600052604160045260246000fd5b611705826115dc565b810181811067ffffffffffffffff82111715611724576117236116cd565b5b80604052505050565b60006117376114e8565b905061174382826116fc565b919050565b600067ffffffffffffffff821115611763576117626116cd565b5b61176c826115dc565b9050602081019050919050565b82818337600083830152505050565b600061179b61179684611748565b61172d565b9050828152602081018484840111156117b7576117b66116c8565b5b6117c2848285611779565b509392505050565b600082601f8301126117df576117de6116c3565b5b81356117ef848260208601611788565b91505092915050565b6000806040838503121561180f5761180e6114f2565b5b600061181d858286016116ae565b925050602083013567ffffffffffffffff81111561183e5761183d6114f7565b5b61184a858286016117ca565b9150509250929050565b60006020828403121561186a576118696114f2565b5b6000611878848285016116ae565b91505092915050565b61188a8161168d565b82525050565b60006020820190506118a56000830184611881565b92915050565b6118b48161168d565b82525050565b6118c38161151c565b82525050565b600082825260208201905092915050565b60006118e582611596565b6118ef81856118c9565b93506118ff8185602086016115b2565b611908816115dc565b840191505092915050565b600060a08301600083015161192b60008601826118ab565b50602083015161193e60208601826118ba565b50604083015161195160408601826118ab565b506060830151848203606086015261196982826118da565b9150506080830151848203608086015261198382826118da565b9150508091505092915050565b600060208201905081810360008301526119aa8184611913565b905092915050565b6000806000606084860312156119cb576119ca6114f2565b5b60006119d9868287016116ae565b935050602084013567ffffffffffffffff8111156119fa576119f96114f7565b5b611a06868287016117ca565b925050604084013567ffffffffffffffff811115611a2757611a266114f7565b5b611a33868287016117ca565b9150509250925092565b6000608082019050611a526000830187611881565b8181036020830152611a6481866115ed565b9050611a736040830185611632565b611a806060830184611632565b95945050505050565b611a9281611626565b8114611a9d57600080fd5b50565b600081359050611aaf81611a89565b92915050565b60008060408385031215611acc57611acb6114f2565b5b6000611ada858286016116ae565b9250506020611aeb85828601611aa0565b9150509250929050565b60008060408385031215611b0c57611b0b6114f2565b5b6000611b1a85828601611545565b9250506020611b2b85828601611aa0565b9150509250929050565b60008060408385031215611b4c57611b4b6114f2565b5b6000611b5a858286016116ae565b9250506020611b6b858286016116ae565b9150509250929050565b600060a082019050611b8a6000830188611881565b611b976020830187611587565b611ba46040830186611881565b8181036060830152611bb681856115ed565b90508181036080830152611bca81846115ed565b90509695505050505050565b600081519050919050565b600082825260208201905092915050565b6000819050602082019050919050565b600060a083016000830151611c1a60008601826118ab565b506020830151611c2d60208601826118ba565b506040830151611c4060408601826118ab565b5060608301518482036060860152611c5882826118da565b91505060808301518482036080860152611c7282826118da565b9150508091505092915050565b6000611c8b8383611c02565b905092915050565b6000602082019050919050565b6000611cab82611bd6565b611cb58185611be1565b935083602082028501611cc785611bf2565b8060005b85811015611d035784840389528151611ce48582611c7f565b9450611cef83611c93565b925060208a01995050600181019050611ccb565b50829750879550505050505092915050565b60006020820190508181036000830152611d2f8184611ca0565b905092915050565b6000602082019050611d4c6000830184611587565b92915050565b60008060408385031215611d6957611d686114f2565b5b6000611d7785828601611545565b925050602083013567ffffffffffffffff811115611d9857611d976114f7565b5b611da4858286016117ca565b9150509250929050565b7f4e487b7100000000000000000000000000000000000000000000000000000000600052602260045260246000fd5b60006002820490506001821680611df557607f821691505b602082108103611e0857611e07611dae565b5b50919050565b7f4f6e6c792061646d696e2063616e20706572666f726d2074686973206163746960008201527f6f6e000000000000000000000000000000000000000000000000000000000000602082015250565b6000611e6a6022836115a1565b9150611e7582611e0e565b604082019050919050565b60006020820190508181036000830152611e9981611e5d565b9050919050565b7f4172656120616c72656164792065786973747300000000000000000000000000600082015250565b6000611ed66013836115a1565b9150611ee182611ea0565b602082019050919050565b60006020820190508181036000830152611f0581611ec9565b9050919050565b60008190508160005260206000209050919050565b60006020601f8301049050919050565b600082821b905092915050565b600060088302611f6e7fffffffffffffffffffffffffffffffffffffffffffffffffffffffffffffffff82611f31565b611f788683611f31565b95508019841693508086168417925050509392505050565b6000819050919050565b6000611fb5611fb0611fab8461168d565b611f90565b61168d565b9050919050565b6000819050919050565b611fcf83611f9a565b611fe3611fdb82611fbc565b848454611f3e565b825550505050565b600090565b611ff8611feb565b612003818484611fc6565b505050565b5b818110156120275761201c600082611ff0565b600181019050612009565b5050565b601f82111561206c5761203d81611f0c565b61204684611f21565b81016020851015612055578190505b61206961206185611f21565b830182612008565b50505b505050565b600082821c905092915050565b600061208f60001984600802612071565b1980831691505092915050565b60006120a8838361207e565b9150826002028217905092915050565b6120c182611596565b67ffffffffffffffff8111156120da576120d96116cd565b5b6120e48254611ddd565b6120ef82828561202b565b600060209050601f8311600181146121225760008415612110578287015190505b61211a858261209c565b865550612182565b601f19841661213086611f0c565b60005b8281101561215857848901518255600182019150602085019450602081019050612133565b868310156121755784890151612171601f89168261207e565b8355505b6001600288020188555050505b505050505050565b600060208201905081810360008301526121a481846115ed565b905092915050565b7f4e6f206576656e747320666f7220746869732061726561000000000000000000600082015250565b60006121e26017836115a1565b91506121ed826121ac565b602082019050919050565b60006020820190508181036000830152612211816121d5565b9050919050565b7f4e487b7100000000000000000000000000000000000000000000000000000000600052601160045260246000fd5b60006122528261168d565b915061225d8361168d565b925082820390508181111561227557612274612218565b5b92915050565b7f4e487b7100000000000000000000000000000000000000000000000000000000600052603260045260246000fd5b7f4f70657261746f72206e6f742072656769737465726564000000000000000000600082015250565b60006122e06017836115a1565b91506122eb826122aa565b602082019050919050565b6000602082019050818103600083015261230f816122d3565b9050919050565b7f4f70657261746f72206e6f742061637469766500000000000000000000000000600082015250565b600061234c6013836115a1565b915061235782612316565b602082019050919050565b6000602082019050818103600083015261237b8161233f565b9050919050565b7f4172656120646f6573206e6f7420657869737400000000000000000000000000600082015250565b60006123b86013836115a1565b91506123c382612382565b602082019050919050565b600060208201905081810360008301526123e7816123ab565b9050919050565b7f41726561206973206e6f74206163746976650000000000000000000000000000600082015250565b60006124246012836115a1565b915061242f826123ee565b602082019050919050565b6000602082019050818103600083015261245381612417565b9050919050565b7f4f70657261746f7220646f6573206e6f74206578697374000000000000000000600082015250565b60006124906017836115a1565b915061249b8261245a565b602082019050919050565b600060208201905081810360008301526124bf81612483565b9050919050565b7f4f70657261746f7220616c726561647920657869737473000000000000000000600082015250565b60006124fc6017836115a1565b9150612507826124c6565b602082019050919050565b6000602082019050818103600083015261252b816124ef565b905091905056fea264697066735822122026e38ee96dd3cbdfa953242a4059f1e2a336c24d71838699676ebbfbc495a6c364736f6c634300081b0033",
  "linkReferences": {},
  "deployedLinkReferences": {}
}